:020000042001D9
:10000000970200009382C20173905230F32240F1B4
:1000100063900200374100806F0040026F000000D3
:1000200057656C636F6D6520746F20454E49474D71
:10003000410000000D0A3E2000000000373401108E
:10004000832284000323C40093E21200136313008D
:1000500023245400232664006F004002838205009D
:10006000638C02009385150003230500E34E03FE15
:10007000232055006FF09FFE6780000013050400E9
:1000800097050000938505FAEFF05FFD1305040066
:1000900097050000938545FAEFF05FFC130E4000D2
:1000A00083224400E3CE02FE93F2F20F1303D0004A
:1000B000E38E62FC1383F2FBE34403FE930390019F
:1000C000E3C063FE63060E00130EFEFF6F008001A7
:1000D00003230400E34E03FE130300022320640005
:1000E000130E40009382D2001303A0056354530003
:1000F000938262FE03230400E34E03FE2320540098
:040100006FF01FFA83
:0400000520010000D6
:00000001FF
