:020000042001D9
:10000000970200009382C20173905230F32240F1B4
:1000100063900200374100806F0000046F00000011
:1000200057656C636F6D6520746F20454E49474D71
:10003000410000000D0A3E20000000008382050000
:10004000938F150003230500E34E03FE2320550084
:100050006FF0DFFE678000003734011083228400D8
:100060000323C40093E212001363130023245400FB
:10007000232664001305040097050000938585FA84
:10008000EFF0DFFB13050400970500009385C5FA28
:10009000EFF0DFFA130E400083224400E3CE02FEAD
:1000A00093F2F20F1303D000E38E62FC1383F2FB92
:1000B000E34403FE93039001E3C063FE130EFEFFCF
:1000C0006F00800103230400E34E03FE13030002CC
:1000D00023206400130E40009382D2001303A00576
:1000E000938262FE03230400E34E03FE23205400A8
:0400F0006FF09FFA14
:0400000520010000D6
:00000001FF
